{
  "_format": "hh3-artifact-1",
  "contractName": "AIBountyJudge",
  "sourceName": "contracts/AIJudge.sol",
  "abi": [
    {
      "anonymous": false,
      "inputs": [
        {
          "indexed": true,
          "internalType": "uint256",
          "name": "bountyId",
          "type": "uint256"
        },
        {
          "indexed": true,
          "internalType": "address",
          "name": "participant",
          "type": "address"
        }
      ],
      "name": "AnswerRevealed",
      "type": "event"
    },
    {
      "anonymous": false,
      "inputs": [
        {
          "indexed": true,
          "internalType": "uint256",
          "name": "bountyId",
          "type": "uint256"
        },
        {
          "indexed": false,
          "internalType": "uint256",
          "name": "reward",
          "type": "uint256"
        },
        {
          "indexed": false,
          "internalType": "uint256",
          "name": "submissionDeadline",
          "type": "uint256"
        },
        {
          "indexed": false,
          "internalType": "uint256",
          "name": "revealDeadline",
          "type": "uint256"
        }
      ],
      "name": "BountyCreated",
      "type": "event"
    },
    {
      "anonymous": false,
      "inputs": [
        {
          "indexed": true,
          "internalType": "uint256",
          "name": "bountyId",
          "type": "uint256"
        },
        {
          "indexed": true,
          "internalType": "address",
          "name": "participant",
          "type": "address"
        }
      ],
      "name": "CommitmentSubmitted",
      "type": "event"
    },
    {
      "anonymous": false,
      "inputs": [
        {
          "indexed": true,
          "internalType": "uint256",
          "name": "bountyId",
          "type": "uint256"
        }
      ],
      "name": "JudgingRequested",
      "type": "event"
    },
    {
      "anonymous": false,
      "inputs": [
        {
          "indexed": true,
          "internalType": "uint256",
          "name": "bountyId",
          "type": "uint256"
        },
        {
          "indexed": true,
          "internalType": "address",
          "name": "winner",
          "type": "address"
        }
      ],
      "name": "WinnerFinalized",
      "type": "event"
    },
    {
      "inputs": [
        {
          "internalType": "uint256",
          "name": "",
          "type": "uint256"
        }
      ],
      "name": "bounties",
      "outputs": [
        {
          "internalType": "address",
          "name": "owner",
          "type": "address"
        },
        {
          "internalType": "uint256",
          "name": "reward",
          "type": "uint256"
        },
        {
          "internalType": "uint256",
          "name": "submissionDeadline",
          "type": "uint256"
        },
        {
          "internalType": "uint256",
          "name": "revealDeadline",
          "type": "uint256"
        },
        {
          "internalType": "bool",
          "name": "isFinalized",
          "type": "bool"
        },
        {
          "internalType": "address",
          "name": "winner",
          "type": "address"
        }
      ],
      "stateMutability": "view",
      "type": "function"
    },
    {
      "inputs": [],
      "name": "bountyCounter",
      "outputs": [
        {
          "internalType": "uint256",
          "name": "",
          "type": "uint256"
        }
      ],
      "stateMutability": "view",
      "type": "function"
    },
    {
      "inputs": [
        {
          "internalType": "uint256",
          "name": "",
          "type": "uint256"
        },
        {
          "internalType": "uint256",
          "name": "",
          "type": "uint256"
        }
      ],
      "name": "bountyParticipants",
      "outputs": [
        {
          "internalType": "address",
          "name": "",
          "type": "address"
        }
      ],
      "stateMutability": "view",
      "type": "function"
    },
    {
      "inputs": [
        {
          "internalType": "uint256",
          "name": "_submissionDeadline",
          "type": "uint256"
        },
        {
          "internalType": "uint256",
          "name": "_revealDeadline",
          "type": "uint256"
        }
      ],
      "name": "createBounty",
      "outputs": [
        {
          "internalType": "uint256",
          "name": "",
          "type": "uint256"
        }
      ],
      "stateMutability": "payable",
      "type": "function"
    },
    {
      "inputs": [
        {
          "internalType": "uint256",
          "name": "bountyId",
          "type": "uint256"
        },
        {
          "internalType": "uint256",
          "name": "winnerIndex",
          "type": "uint256"
        }
      ],
      "name": "finalizeWinner",
      "outputs": [],
      "stateMutability": "nonpayable",
      "type": "function"
    },
    {
      "inputs": [
        {
          "internalType": "uint256",
          "name": "bountyId",
          "type": "uint256"
        },
        {
          "internalType": "bytes",
          "name": "llmInput",
          "type": "bytes"
        }
      ],
      "name": "judgeAll",
      "outputs": [],
      "stateMutability": "nonpayable",
      "type": "function"
    },
    {
      "inputs": [
        {
          "internalType": "uint256",
          "name": "bountyId",
          "type": "uint256"
        },
        {
          "internalType": "string",
          "name": "answer",
          "type": "string"
        },
        {
          "internalType": "bytes32",
          "name": "salt",
          "type": "bytes32"
        }
      ],
      "name": "revealAnswer",
      "outputs": [],
      "stateMutability": "nonpayable",
      "type": "function"
    },
    {
      "inputs": [
        {
          "internalType": "uint256",
          "name": "",
          "type": "uint256"
        },
        {
          "internalType": "address",
          "name": "",
          "type": "address"
        }
      ],
      "name": "submissions",
      "outputs": [
        {
          "internalType": "bytes32",
          "name": "commitment",
          "type": "bytes32"
        },
        {
          "internalType": "string",
          "name": "answer",
          "type": "string"
        },
        {
          "internalType": "bool",
          "name": "isRevealed",
          "type": "bool"
        }
      ],
      "stateMutability": "view",
      "type": "function"
    },
    {
      "inputs": [
        {
          "internalType": "uint256",
          "name": "bountyId",
          "type": "uint256"
        },
        {
          "internalType": "bytes32",
          "name": "commitment",
          "type": "bytes32"
        }
      ],
      "name": "submitCommitment",
      "outputs": [],
      "stateMutability": "nonpayable",
      "type": "function"
    }
  ],
  "bytecode": "0x608060405234801561000f575f80fd5b506110328061001d5f395ff3fe608060405260043610610084575f3560e01c8063a0d5978711610057578063a0d5978714610138578063d5198a711461014c578063d8964ee91461016b578063dc2f87441461018a578063e6a3d9dc14610226575f80fd5b80630e4dbf5c146100885780632d524cf5146100bf5780635a7722f1146100f65780637925d42014610117575b5f80fd5b348015610093575f80fd5b506100a76100a2366004610c98565b610245565b6040516100b693929190610cd1565b60405180910390f35b3480156100ca575f80fd5b506100de6100d9366004610d2e565b6102fb565b6040516001600160a01b0390911681526020016100b6565b348015610101575f80fd5b50610115610110366004610d2e565b61032f565b005b61012a610125366004610d2e565b61066b565b6040519081526020016100b6565b348015610143575f80fd5b5061012a5f5481565b348015610157575f80fd5b50610115610166366004610d93565b610811565b348015610176575f80fd5b50610115610185366004610de2565b610a36565b348015610195575f80fd5b506101e86101a4366004610e2a565b600160208190525f9182526040909120805491810154600282015460038301546004909301546001600160a01b03948516949293919260ff82169161010090041686565b604080516001600160a01b039788168152602081019690965285019390935260608401919091521515608083015290911660a082015260c0016100b6565b348015610231575f80fd5b50610115610240366004610d2e565b610b62565b600260209081525f92835260408084209091529082529020805460018201805491929161027190610e41565b80601f016020809104026020016040519081016040528092919081815260200182805461029d90610e41565b80156102e85780601f106102bf576101008083540402835291602001916102e8565b820191905f5260205f20905b8154815290600101906020018083116102cb57829003601f168201915b5050506002909301549192505060ff1683565b6003602052815f5260405f208181548110610314575f80fd5b5f918252602090912001546001600160a01b03169150829050565b5f82815260016020526040902080546001600160a01b0316331461039a5760405162461bcd60e51b815260206004820152601760248201527f4f6e6c79206f776e65722063616e2066696e616c697a6500000000000000000060448201526064015b60405180910390fd5b806003015442116103e95760405162461bcd60e51b815260206004820152601960248201527852657665616c207068617365207374696c6c2061637469766560381b6044820152606401610391565b600481015460ff16156104395760405162461bcd60e51b8152602060048201526018602482015277109bdd5b9d1e48185b1c9958591e48199a5b985b1a5e995960421b6044820152606401610391565b5f8381526003602090815260408083208054825181850281018501909352808352919290919083018282801561049657602002820191905f5260205f20905b81546001600160a01b03168152600190910190602001808311610478575b50505050509050805183106104e45760405162461bcd60e51b8152602060048201526014602482015273092dcecc2d8d2c840eed2dcdccae440d2dcc8caf60631b6044820152606401610391565b5f8184815181106104f7576104f7610e79565b6020908102919091018101515f878152600280845260408083206001600160a01b03851684529094529290209091015490915060ff166105795760405162461bcd60e51b815260206004820152601960248201527f57696e6e6572206d75737420686176652072657665616c6564000000000000006044820152606401610391565b60048301805460016001600160a81b03199091166101006001600160a01b0385169081029190911782179092558401546040515f9291908381818185875af1925050503d805f81146105e6576040519150601f19603f3d011682016040523d82523d5f602084013e6105eb565b606091505b505090508061062e5760405162461bcd60e51b815260206004820152600f60248201526e151c985b9cd9995c8819985a5b1959608a1b6044820152606401610391565b6040516001600160a01b0383169087907f98f4846ae083db1b20ae91e08a84980eff81b44c90a12ff682d53d745dd113e6905f90a3505050505050565b5f4283116106bb5760405162461bcd60e51b815260206004820152601b60248201527f496e76616c6964207375626d697373696f6e20646561646c696e6500000000006044820152606401610391565b82821161070a5760405162461bcd60e51b815260206004820152601760248201527f496e76616c69642072657665616c20646561646c696e650000000000000000006044820152606401610391565b5f805f815461071890610e8d565b91829055506040805160c0810182523381523460208083018281528385018a815260608086018b81525f6080880181815260a089018281528b83526001808952928b902099518a546001600160a01b0319166001600160a01b03918216178b559651928a0192909255935160028901559051600388015591516004909601805492516001600160a81b0319909316961515610100600160a81b031916969096176101009290931691909102919091179093558351918252810188905291820186905291925082917f2254ec8b2d186fbd6baf41ad251166871af5189bbaba60796291278bd05b3153910160405180910390a29392505050565b5f848152600160205260409020600281015442116108715760405162461bcd60e51b815260206004820152601d60248201527f5375626d697373696f6e207068617365207374696c6c206163746976650000006044820152606401610391565b80600301544211156108ba5760405162461bcd60e51b815260206004820152601260248201527114995d99585b081c1a185cd948195b99195960721b6044820152606401610391565b5f858152600260209081526040808320338452909152902080546109165760405162461bcd60e51b8152602060048201526013602482015272139bc818dbdb5b5a5d1b595b9d08199bdd5b99606a1b6044820152606401610391565b600281015460ff161561095e5760405162461bcd60e51b815260206004820152601060248201526f105b1c9958591e481c995d99585b195960821b6044820152606401610391565b5f858585338a604051602001610978959493929190610eb1565b60405160208183030381529060405280519060200120905080825f0154146109e25760405162461bcd60e51b815260206004820152601960248201527f496e76616c69642072657665616c20706172616d6574657273000000000000006044820152606401610391565b600182016109f1868883610f42565b5060028201805460ff19166001179055604051339088907f6f30d8f6c98d8fa219bfafa662ad220e3b7d642ea3fe8a284b9692cfcb894edb905f90a350505050505050565b5f83815260016020526040902080546001600160a01b03163314610a935760405162461bcd60e51b81526020600482015260146024820152734f6e6c79206f776e65722063616e206a7564676560601b6044820152606401610391565b80600301544211610ae25760405162461bcd60e51b815260206004820152601960248201527852657665616c207068617365207374696c6c2061637469766560381b6044820152606401610391565b600481015460ff1615610b325760405162461bcd60e51b8152602060048201526018602482015277109bdd5b9d1e48185b1c9958591e48199a5b985b1a5e995960421b6044820152606401610391565b60405184907f66a6d244120369ad1fa23b4ad6080843cf75890a6d1efd797db00a3e36b8466c905f90a250505050565b5f8281526001602052604090206002810154421115610bbc5760405162461bcd60e51b815260206004820152601660248201527514dd589b5a5cdcda5bdb881c1a185cd948195b99195960521b6044820152606401610391565b5f83815260026020908152604080832033845290915290205415610c225760405162461bcd60e51b815260206004820152601c60248201527f436f6d6d69746d656e7420616c7265616479207375626d6974746564000000006044820152606401610391565b5f8381526002602090815260408083203380855290835281842086905586845260038352818420805460018101825590855292842090920180546001600160a01b0319168317905551909185917f22d30f6da93667100b64d15e5ea70afec217caeab1008706f57bfa4deed12c639190a3505050565b5f8060408385031215610ca9575f80fd5b8235915060208301356001600160a01b0381168114610cc6575f80fd5b809150509250929050565b8381525f60206060602084015284518060608501525f5b81811015610d0457868101830151858201608001528201610ce8565b505f608082860101526080601f19601f830116850101925050508215156040830152949350505050565b5f8060408385031215610d3f575f80fd5b50508035926020909101359150565b5f8083601f840112610d5e575f80fd5b50813567ffffffffffffffff811115610d75575f80fd5b602083019150836020828501011115610d8c575f80fd5b9250929050565b5f805f8060608587031215610da6575f80fd5b84359350602085013567ffffffffffffffff811115610dc3575f80fd5b610dcf87828801610d4e565b9598909750949560400135949350505050565b5f805f60408486031215610df4575f80fd5b83359250602084013567ffffffffffffffff811115610e11575f80fd5b610e1d86828701610d4e565b9497909650939450505050565b5f60208284031215610e3a575f80fd5b5035919050565b600181811c90821680610e5557607f821691505b602082108103610e7357634e487b7160e01b5f52602260045260245ffd5b50919050565b634e487b7160e01b5f52603260045260245ffd5b5f60018201610eaa57634e487b7160e01b5f52601160045260245ffd5b5060010190565b8486823790930191825260601b6bffffffffffffffffffffffff191660208201526034810191909152605401919050565b634e487b7160e01b5f52604160045260245ffd5b601f821115610f3d57805f5260205f20601f840160051c81016020851015610f1b5750805b601f840160051c820191505b81811015610f3a575f8155600101610f27565b50505b505050565b67ffffffffffffffff831115610f5a57610f5a610ee2565b610f6e83610f688354610e41565b83610ef6565b5f601f841160018114610f9f575f8515610f885750838201355b5f19600387901b1c1916600186901b178355610f3a565b5f83815260208120601f198716915b82811015610fce5786850135825560209485019460019092019101610fae565b5086821015610fea575f1960f88860031b161c19848701351681555b505060018560011b018355505050505056fea26469706673582212203a6e8fec180a7cf74f68b1173fdf3f243dae9cc33d697b946da3547216d97d2664736f6c63430008180033",
  "linkReferences": {},
  "deployedLinkReferences": {},
  "immutableReferences": {},
  "inputSourceName": "project/contracts/AIJudge.sol",
  "buildInfoId": "solc-0_8_24-f09c6be7adc397b4a6348edce02f63793581d2a3"
}